:100000000C942A001895000018950000189500001F
:10001000189500001895000018950000189500002C
:10002000189500001895000018950000189500001C
:10003000189500001895000018950000189500000C
:1000400018950000189500001895000018950000FC
:10005000189500008FE58DBFC8E3E0E24E2E88E0E2
:100060008EBFD8E0F8E05F2EA89584B7082E877F72
:1000700084BF88E1992781BD91BDEEEFF7E0A0E64E
:10008000B0E088278D933197E9F783E389B980E061
:1000900080BD88E18AB966248A988B9A939A8D9A52
:1000A0008C9A81EA8FBD83E08EBD8E9A85E083BFF6
:1000B000BC9AD598B89AB998BA9ABB988F9A8E9AE2
:1000C0009798969880E090E090934B0080934A0038
:1000D00080E090E090934900809348000E94BE0128
:1000E0000E947C010E940002A0E6B0E00D911C91EC
:1000F00044E650E00E94E502A6E6B0E00D931C93B2
:10010000A6E6B0E00D911C9140E051E00E9468022B
:10011000ACE6B0E04D935C93A2E6B0E00D911C918B
:1001200044E650E00E94E502A8E6B0E00D931C937F
:10013000A8E6B0E00D911C9140E051E00E946802F9
:10014000AEE6B0E04D935C93A4E6B0E00D911C9157
:1001500044E650E00E94E502AAE6B0E00D931C934D
:10016000AAE6B0E00D911C9140E051E00E946802C7
:10017000A0E7B0E04D935C93ACE6B0E00D911C912C
:10018000093050E0150780E010F009F081E08F930E
:10019000ACE6B0E00D911C91023150E0150781E012
:1001A00008F080E09F918923882311F40C94F200D9
:1001B000E6EEF5E00E9482020E948902ECEEF5E094
:1001C0000E94CA020E94D20284EB90E090934B00FE
:1001D00080934A0084EB90E090934900809348001C
:1001E0000C947601AEE6B0E00D911C91063050E023
:1001F000150780E010F009F081E08F93AEE6B0E0E3
:100200000D911C910D3050E0150781E008F080E061
:100210009F918923882311F40C942801E0EFF5E0E5
:100220000E9482020E948902ECEFF5E00E94CA025D
:100230000E94D2028EEB90E090934B0080934A0094
:1002400080E090E090934900809348000C94760100
:10025000A0E7B0E00D911C91063050E0150780E05A
:1002600010F009F081E08F93A0E7B0E00D911C91B0
:100270000D3050E0150781E008F080E09F91892360
:10028000882311F40C945E01E0E0F6E00E94820203
:100290000E948902ECE0F6E00E94CA020E94D202AB
:1002A00080E090E090934B0080934A008EEB90E0CA
:1002B00090934900809348000C947601E0E1F6E0C9
:1002C0000E9482020E948902E6E1F6E00E94CA02D0
:1002D0000E94D20280E090E090934B0080934A000D
:1002E00080E090E0909349008093480082E390E0A2
:1002F0000E94D6020C946E00C498EF93FF93E0E145
:10030000F0E00E949002FF91EF91C49AEF93FF9367
:10031000E4E2F0E00E949002FF91EF91C49870E057
:1003200072BFB59BFECF85E083BFB5990C94A20147
:1003300082B7A0E6B0E08D9388278C93882783BF8F
:100340000C94B701A8E5B0E00C9100FB16F00C94FA
:10035000B501882783BF71E078BF8FEF90E0A0E6FA
:10036000B0E08D939C930C94B7010C949501882771
:1003700083BF8FE090E00E94D6020895C098EF936B
:10038000FF93E0E1F0E00E949002FF91EF91C09AAC
:10039000EF93FF93E4E2F0E00E949002FF91EF916F
:1003A000C09870E072BFB19BFECF85E083BFB1996A
:1003B0000C94E40182B7A2E6B0E08D9388278C9379
:1003C000882783BF0C94F901A8E5B0E00C9100FBED
:1003D00016F00C94F701882783BF71E078BF8FEF88
:1003E00090E0A2E6B0E08D939C930C94F9010C94FC
:1003F000D701882783BF8FE090E00E94D60208953E
:10040000C298EF93FF93E0E1F0E00E949002FF9129
:10041000EF91C29AEF93FF93E4E2F0E00E94900222
:10042000FF91EF91C29870E072BFB39BFECF85E061
:1004300083BFB3990C94260282B7A4E6B0E08D93F3
:1004400088278C93882783BF0C943B02A8E5B0E0F3
:100450000C9100FB16F00C943902882783BF71E0E1
:1004600078BF8FEF90E0A4E6B0E08D939C930C945E
:100470003B020C941902882783BF8FE090E00E9412
:10048000D602089509D00E94E50200FC10D008951C
:1004900003D01ED001F8F9CF0024E89457FF02C022
:1004A00009D0689400F80BD010F80124089502D008
:1004B00009D00895509540954F5F5F4F0895E89497
:1004C00017FF0895009510950F5F1F4F68940895CA
:1004D000352F242FE894452B11F468940895512F5B
:1004E000402F0027112780E1440F551F001F111FC7
:1004F000021B130B416018F4020F131F4E7F8A95E5
:1005000099F708950E94EF02802D11F005D0FACFDF
:1005100008958DE001D08AE05D9BFECF8CB90895EF
:100520003197F1F70895689462F80895E89462F8B5
:1005300008958F939F9383E690E00197F1F79F9141
:100540008F91089529E08299FECFF3DFF2DFF1DF8A
:100550008894829908942A9519F087959795F6CFF3
:1005600008958F939F9383E690E00197F1F79F9111
:100570008F91089580952AE090E0089410F4939864
:1005800002C0939A0000EDDFECDF969587952A95DF
:10059000A9F70895C895802D882319F0EBDF3196CF
:1005A000F9CF08958DE0E6DF8AE0E4CFEF93FF9383
:1005B000EE27E82BE92B31F0E0EDF7E03197F1F78A
:1005C0000197D1F7FF91EF9108950F92B801469FDF
:1005D0008001479F100D569F100D0F900895C895EC
:1005E0003196002008956D616A750000312F00007A
:1005F00062656C6F6B206B616E616E00322F000064
:1006000062656C6F6B206B6972690000332F0000AC
:0A06100073746F700000302F0000BB
:00000001FF
